:1000000012C0A0C3189518951895189518951895AD
:1000100097C21895189518951895189518951895CC
:100020001895189518958FE58DBFC8E3E0E24E2E20
:1000300084E08EBFD4E0F4E05F2EA89584B7082E4C
:10004000877F84BF88E1992781BD91BDEEEFF3E002
:10005000A0E6B0E088278D933197E9F7E4D36624D2
:100060008CE029D4BE9A8F9A8C988B988A9889981C
:10007000889885E886B980E087B974B7777F74BFC0
:100080008FE181BD87E081BD81B5886081BD85B785
:10009000836085BF78947BB770647BBF80E08FBD41
:1000A00084E08EBD79B7746079BF78948DEE95E861
:1000B0009DBD8CBD81E08093640070916500706887
:1000C00070936500E6E0F0E0ACE6B0E04FD7009159
:1000D0006C000F3F09F01AC0E6E8FFE041D6E0E00F
:1000E000F0E0ADE0BB2794E07BE732D7E4E0F0E05E
:1000F0000EE110E0A0E1BB277BE729D7E6E0F0E0C6
:10010000A0E1BB278AE08C937BE71FD780E090E0DB
:10011000A9E7B0E08D939C93709165007F7B70930D
:100120006500709165007F7D70936500979A70916E
:10013000650070617093650007B1007F056007B9C5
:10014000D4D4A0E6B0E08D939C9384E690E0DFD316
:1001500007B1007F036007B9C8D4A2E6B0E08D9371
:100160009C93EAE8FFE005D6E0E6F0E0D190E0807D
:10017000FF240027F1D43CD5EDE0F0E0ADE6B0E09F
:10018000D8D6EAE8FFE0F5D5E2E6F0E0D190E080ED
:10019000FF240027E1D42CD5EDE0F0E0A1E7B0E0AA
:1001A000C8D6E1E7F0E0B9D4EDE6F0E0B1D477D518
:1001B000EDE0F0E0A5E7B0E0BCD6E5E7F0E0E0D6A2
:1001C000EDE0F0E0A5E7B0E0B4D6E5E7F0E0A0D4DC
:1001D000E6E6F0E0A2D4D6D580E010F009F081E0A8
:1001E0008F9300916400013081E009F080E09F91DD
:1001F0008923882309F40CC07091650070647093A2
:100200006500979A7091650070617093650001C0F8
:1002100099D200916400013081E009F080E08F9371
:10022000A5E6B0E08C9187FB81E00EF080E09F9125
:100230008923882309F410C0A6E6B0E0E0E0F0E0EE
:1002400094E097D6E4E0F0E0AAE6B0E091D67091B1
:1002500065007F777093650000916400023081E053
:1002600009F080E08F93A5E6B0E08C9187FB81E0F8
:100270000EF080E09F918923882309F415C0BFD236
:10028000E6E9FFE0B6D28FEB11E0C8D2A8E0B4E017
:10029000EAE6F0E0F0D5A5D2E6EAFFE0AAD2709156
:1002A00065007F777093650000916400033081E002
:1002B00009F080E08F93A5E6B0E08C9187FB81E0A8
:1002C0000EF080E09F918923882309F416C097D20D
:1002D000EEEAFFE08ED28FEB11E0A0D2A8E0B4E00E
:1002E000E6E6F0E015D422D37CD2ECEBFFE081D23D
:1002F000709165007F7770936500849945C0979AE7
:100300007091650070617093650080E080937B0060
:1003100000916400023009F015C0AAE6B0E00D912A
:100320001C910F3051E0150708F00CC0AAE6B0E0B0
:100330000D911C914EE150E0040F151FAAE6B0E0AC
:100340000D931C9300916400033009F015C0E6E69C
:10035000F0E0DED3EEE8FFE00CD514D508F00CC0D9
:10036000E6E8FFE006D5E6E6F0E0D2D3A7D4EDE07C
:10037000F0E0A6E6B0E0DDD580EF90E0C8D2709165
:100380006500706870936500839949C0979A709171
:10039000650070617093650080E080937B00009140
:1003A0006400023009F017C0AAE6B0E00D911C917C
:1003B0000E3150E0150710F009F001C00CC0AAE69C
:1003C000B0E00D911C914EE150E0041B150BAAE624
:1003D000B0E00D931C9300916400033009F017C046
:1003E000E6E6F0E095D3E2E9FFE0C3D4CBD410F029
:1003F00009F001C00CC0E6E8FFE0BBD4E6E6F0E09F
:1004000087D34DD4EDE0F0E0A6E6B0E092D5709150
:10041000650070687093650080EF90E078D28299F3
:1004200020C0979A7091650070617093650080E0BC
:1004300080937B0000916400023009F006C0E4E084
:10044000F0E0AAE6B0E07BE782D5009164000330DB
:1004500009F007C0E0E0F0E0A6E6B0E094E07BE75A
:1004600077D5A0E3B0E00C9101FB81E00EF480E0D1
:100470008F93A5E6B0E08C9186FB81E00EF480E0DE
:100480009F918923882309F422C0979A709165006F
:1004900070617093650080E080937B00E4E0F0E0A1
:1004A000AAE6B0E065D500916400023009F004C00E
:1004B00081E08093640003C082E08093640080EF59
:1004C00090E025D270916500706870936500A0E39C
:1004D000B0E00C9100FB81E00EF480E08F93A5E684
:1004E000B0E08C9186FB81E00EF480E09F9189233F
:1004F000882309F423C0979A709165007061709306
:10050000650080E080937B00A6E6B0E0E0E0F0E0EC
:1005100094E02FD500916400033009F004C081E01D
:100520008093640003C083E08093640080EF90E0D8
:10053000EED170916500706870936500A895FCCD50
:100540000F921F922F923F924F925F927F92AF92A3
:10055000BF920F931F932F933F934F935F936F938C
:100560007F938F939F93AF93BF93CF93DF93EF933B
:10057000FF938FB78F938DEE95E89DBD8CBD009155
:100580006400013081E009F080E08F93A5E6B0E0DF
:100590008C9187FB81E00EF480E09F9189238F93FB
:1005A000A5E6B0E08C9186FB81E00EF480E09F919F
:1005B0008923882309F441C022D18EE190E0A7D19C
:1005C0001ED1A8E0B4E0AF93BF93EDE6F0E0A0D277
:1005D000ADD111E001E0BF91AF91F7D3E8E0F4E0D5
:1005E000ACE7B0E0A1D4A8E0B4E0AF93BF93E1E7FB
:1005F000F0E08ED29BD111E001E0BF91AF91E5D345
:10060000E8E0F4E0A1E8B0E08FD48FE711E006D194
:10061000E8ECFFE0EED0ACE7B0E0E5D0E2EDFFE0E3
:10062000E8D08FEB11E0FAD0E6EDFFE0E2D0A1E8F0
:10063000B0E0D9D0E2EDFFE0DCD0A5E6B0E08C91EF
:1006400086FB0EF033C0A9E7B0E0C4D0D8D0E0EE0E
:10065000FFE0CFD0A8E0B4E0AF93BF93E5E7F0E0D0
:1006600057D264D111E002E0BF91AF91AED3E8E080
:10067000F4E0A6E8B0E058D48FEB16E0CFD0A6E8BF
:10068000B0E0B1D0AAE6B0E04D915C91A9E7B0E04E
:100690000D911C910417150710F009F001C006C058
:1006A000C69A70916500706270936500A5E6B0E02F
:1006B0008C9184FB0EF02AC0ABE7B0E08C918F5F89
:1006C0008C9300917B000E3180E010F009F081E006
:1006D0008F93A5E6B0E08C9185FB81E00EF480E07D
:1006E0009F918923882309F411C097987091650020
:1006F0007F7E7093650080E080937B0081E0809333
:100700006400709165007068709365008F918FBF71
:10071000FF91EF91DF91CF91BF91AF919F918F9119
:100720007F916F915F914F913F912F911F910F9109
:10073000BF90AF907F905F904F903F902F901F9011
:100740000F9018950F921F922F923F924F925F92A7
:100750007F92AF92BF920F931F932F933F934F932C
:100760005F936F937F938F939F93AF93BF93CF9339
:10077000DF93EF93FF938FB78F93C69870916500C7
:100780007F7D70936500709165007F7B709365003D
:1007900080E090E0A9E7B0E08D939C938F918FBFAC
:1007A000FF91EF91DF91CF91BF91AF919F918F9189
:1007B0007F916F915F914F913F912F911F910F9179
:1007C000BF90AF907F905F904F903F902F901F9081
:1007D0000F901895ED91FC91EF5FFF4FFC93EE9316
:1007E0000895A8E0B4E08D91882311F05ED0FBCF8E
:1007F0000895B2D2802D11F058D0FBCF089581E03A
:100800005AD00ED080E857C08FE7213039F08FEBF7
:10081000223021F08FE8233009F08FEC810F4BC09C
:1008200083E0992774C08AEF90E071D0B89AB99AA2
:10083000BA9ABB9ABC9ABD9AC59885E090E067D0F9
:10084000C498C098C198C29AC39AC49AEF93FF9370
:10085000E0E6F0E050D0FF91EF91C49855D0C49AF3
:10086000EF93FF93E0E6F0E046D0FF91EF91C4985C
:100870004BD0C49AEF93FF93E0E6F0E03CD0FF91B9
:10088000EF91C49841D0C398C49AEF93FF93E0E6E8
:10089000F0E031D0FF91EF91C49836D088E20BD0D0
:1008A0008EE009D086E007D00895C59A829505D0DC
:1008B00004D02AD00895C598F9CF859510F4C39A2D
:1008C00001C0C398859510F4C29A01C0C29885955D
:1008D00010F4C19A01C0C198859510F4C09A01C066
:1008E000C098C49AEF93FF93E0E6F0E004D0FF9144
:1008F000EF91C49808953197F1F70895689462F8DC
:100900000895E89462F8089581E090E000C0EF93C4
:10091000FF93EE27E82BE92B31F0E8EEF3E0319777
:10092000F1F70197D1F7FF91EF9108958DE207FD5F
:100930008D938F2D881F802F881F8F57082F6894C5
:10094000F7F8802F87FF15C080958395082F80E3E7
:100950008D938EE28D93802F815228F080E38D93CA
:1009600099279C93089544270A95802F09F192D0E6
:100970001FC0805230F09EE49D9381E48D939D933F
:10098000EFCF4427DF92EF92FF920F938FE1801B0E
:1009900011F0082F7FD085D09EE29D930F91FF909C
:1009A000EF90DF9044270395003209F4D7CF27D08A
:1009B0003F93E4E3FAE038E12F2D1E2D0D2DFF24A7
:1009C000EE24DD244427000F111F221F88F42F92EC
:1009D0003F92C2D1102CC0D1202CBED1302CBCD122
:1009E0003197410DD21CE31CF01C3F902F9001C0A9
:1009F000339631963A9539F73F9107D0B3CFDD0C56
:100A0000EE1CFF1C0A95D9F70895002719E058D06D
:100A10008F93802B11F0039501C08F911A95B9F730
:100A2000802F882309F49ACF8F91805D8D930A954A
:100A3000D9F796CF0065CD1D80B2E60E40597307F9
:100A4000A0ACB90350D6DC01286BEE0094357700DA
:100A5000CA9A3B0065CD1D00B2E60E00597307002F
:100A6000ACB90300D6DC01006BEE00003577000066
:100A70009A3B0000CD1D0000E60E00007307000049
:100A8000B9030000DC010000EE0000007700000068
:100A90003B000000F694E794D79447950A95D1F768
:100AA000089500270DD08F9303958F2D8E298D29C2
:100AB000842BC1F78F91805D8D930A95D9F750CF24
:100AC0001F930F93002710E2440FDD1CEE1CFF1C48
:100AD000001F802F9AE0890B10F0082F43951A957C
:100AE00099F7802F0F911F910895369A3699FECF6E
:100AF000369A3699FECF84B195B10895D094E0949A
:100B0000F09491E0D90E9927E91EF91E10950895E9
:100B1000D190E190F190019108952191319141910D
:100B200051910895102F90E8FF0C001F0927990F8D
:100B3000F7941078652F90E8440F551F5927990FA7
:100B40004795607800380895FF0C90E89027110FC2
:100B50009795F794092F0895102FBD2CDE2CEF2CBC
:100B6000F02E11234AF4B094D094E094F0949FEFC7
:100B7000B91AD90AE90AF90A0EE1FF2039F4FE2C64
:100B8000ED2CDB2CBB240850C2F766C032F00A956E
:100B9000BB0CDD1CEE1CFF1CF9CF01D0D5CFB7FE7E
:100BA000089590E8B91611F4D0FE08959FEFD91A70
:100BB000E90AF90A09F403950895502F2D2D3E2DC9
:100BC0004F2D612F08952DEC3CEC4CEC5DE3662736
:100BD0000FC09EDFF2DFDD24EE2490E8F92E0FE354
:100BE00007C09BDF05C02227332740E251E4662778
:100BF000552351F1002381F195DF71F1162700583B
:100C000050580894050B18F407FD03C025C007FDD4
:100C100023C0469537952795F694E794D79422D02C
:100C2000FF202AF0DD0CEE1CFF1C015073F09D2DFF
:100C3000969548F0DD203AF4EE202AF491E0D90EA2
:100C40009927E91EF91E80CF07C09FE7092FF92ACF
:100C50009FEFD92EE92E0895DD24EE24FF240027EE
:100C6000112708959F929924AA24BB2488E1D216C3
:100C7000E306F40628F0D21AE30AF40A089401C045
:100C80008894991CAA1CBB1CDD0CEE1CFF1C8A95C9
:100C900071F7D92CEA2CFB2C9F9008953EDF42DFA0
:100CA000503829F090E869270CC00AF045D04CCFA5
:100CB0005FE322273327442701C02FDF33DF50387B
:100CC000B1F3003899F3902F951B8BF312F434D0C5
:100CD000FACF983118F0222733274427983028F08C
:100CE000232F342F44279850F9CF992329F0469584
:100CF000379527959A95D9F7912F962742F014D0DA
:100D0000B0F6F794E794D7940F5F8BF69ECF10D090
:100D100051F008F4F3DEFF2052F2DD0CEE1CFF1C54
:100D20000150CBF792CF98CFD20EE31EF41E089558
:100D3000D21AE30AF40A0895DF92EF92FF920F931A
:100D40001F93D22EE32EF42E052F162F6F915F9155
:100D50004F913F912F910895C895319600200895A5
:100D6000FBDFD02CF9DFE02CF7DFF02CF5DF002DD6
:100D70000895F2DF202DF0DF302DEEDF402DECDF87
:100D8000502D089507FB00680EF40F7757FB50684D
:100D90000EF45F7707FD02C057FF05C0D216E306C9
:100DA000F406050708952D153E054F0550070895D3
:100DB00099278D9193958823E1F7939511968C93BC
:100DC00011978E919A95D1F70895EA2FFB2F002461
:100DD0004C918D9103948E32E1F711248D911394EF
:100DE0008823E1F71A94101640F41197202F211947
:100DF000239580E38D932A95E9F7113039F59927EA
:100E0000AE2FBF2FA00DB91FA00FB91F8C919C93BF
:100E1000853308F421C031E08E918E32E9F38D32B2
:100E200041F0830F8A3319F480E331E001C03327A6
:100E30008C93AE1789F7332341F0AE2FBF2FB8DF65
:100E400081E34D3209F43196808308958827E00DBF
:100E5000F81FE00FF81F80830895000F111F221F55
:100E6000331F089500951095209530950F5F1F4F03
:100E70002F4F3F4F0895019110810EC001911191A4
:100E8000219130810BC00191108117FF05C03FEF08
:100E90002FEF04C0008111272227332737FF03C01B
:100EA000E1DF8DE28D93CF93DF93CF92DF92EF92CC
:100EB000AA24BB24CC24DD24EE2440E2CAE0DD27B2
:100EC00055E093E38881890F87FD9F7083FD907FB4
:100ED000891B89935A95A9F7C0DFAA1CBB1CCC1C9F
:100EE000DD1CEE1C4A9551F7E894EFE0FF27829154
:100EF0000ED0EB30E0F71EF068948A2D0CD08827D6
:100F00008D93EF90DF90CF90DF91CF910895982F40
:100F1000829501D0892F8F70805D26F0803309F48F
:100F2000089568948D93089581918D938823E1F7B6
:100F3000089594E081918D939A95E1F70895E19950
:100F4000FECFEEBBFFBB3196089591E001C092E069
:100F50007B3751F47FB7F894F2DF8D918DBBE29A25
:100F6000E19A9A95C9F77FBF7727089591E001C06C
:100F700092E0E5DFE09A8DB38D939A95D1F70895CD
:100F8000C7DD0F7708950000003F000040420000D9
:100F90008041CDCC4C3F5365742044656C61792011
:100FA00054696D652000202053656320200043753F
:100FB0007272656E742044696666000020206D417F
:100FC0006D70202020200000496E707574313A2029
:100FD0000000206D4100496E707574323A200000A7
:100FE000206D412020446966666572656E636520E8
:020FF0000000FF
:00000001FF
